:020000040800F2
:1000000000280020DD1900086D1900087319000888
:10001000791900087F190008851900080000000000
:100020000000000000000000000000008B19000824
:100030009719000800000000A3190008AF19000874
:10004000251A0008251A0008251A0008251A000894
:10005000251A0008251A0008251A0008251A000884
:10006000251A0008251A0008251A0008251A000874
:10007000251A0008251A0008251A0008251A000864
:10008000251A0008251A0008251A0008251A000854
:10009000251A0008251A0008251A0008251A000844
:1000A000251A0008251A0008251A0008251A000834
:1000B000BD190008251A000800000000251A0008D4
:1000C000251A00080000000000000000251A0008A2
:1000D00000000000251A0008251A00080000000092
:1000E000251A0008251A0008251A0008000000003B
:1000F0000000000000000000000000000000000000
:0C01000000000000000000005FF808F1A3
:10010C0010B5054C237833B9044B13B10448AFF345
:10011C0000800123237010BD580000200000000057
:10012C005430000808B5034B1BB103490348AFF327
:10013C00008008BD000000005C0000205430000866
:10014C0080B400AF064B1B68012B04D1044B00227A
:10015C001A60012300E000231846BD4680BC70479E
:10016C007400002080B400AF064B1B68012B04D137
:10017C00044B00221A60012300E000231846BD4600
:10018C0080BC70477800002080B400AF064B1B6821
:10019C00012B04D1044B00221A60012300E0002340
:1001AC001846BD4680BC70477C00002080B400AF70
:1001BC00034B01221A6000BFBD4680BC704700BFD4
:1001CC007400002080B400AF034B01221A6000BF02
:1001DC00BD4680BC704700BF7800002080B400AFE3
:1001EC00034B01221A6000BFBD4680BC704700BFA4
:1001FC007C00002080B500AF5C4B1B685C4A136030
:10020C005C4B1B68594A13604FF400515A4801F07B
:10021C00EFFE03461A46574B1A60554B1A68534B60
:10022C001B689A4225D1514B1A68524B1B689A4253
:10023C001FD1524B1A684F4B1B689A420DD04D4B35
:10024C001B684E4A13604B4B1B68002B11D1FFF7F8
:10025C00ADFF4B4BC8221A600BE0494B1B68013BAE
:10026C00474A1360464B1B68002B02D1434B0122BB
:10027C001A60444B1B68444A1360444B1B68414A48
:10028C0013604FF480413C4801F0B2FE03461A461D
:10029C003E4B1A603C4B1A683A4B1B689A4225D16C
:1002AC00384B1A68394B1B689A421FD1384B1A6865
:1002BC00364B1B689A420DD0344B1B68344A136082
:1002CC00324B1B68002B11D1FFF77CFF314BC8223E
:1002DC001A600BE02F4B1B68013B2E4A13602D4B11
:1002EC001B68002B02D12A4B01221A602A4B1B6877
:1002FC002A4A13602A4B1B68274A13604FF40041AB
:10030C001D4801F075FE03461A46254B1A60234B17
:10031C001A68214B1B689A4225D11F4B1A68204B37
:10032C001B689A421FD11F4B1A681D4B1B689A42BF
:10033C000DD01B4B1B681B4A1360194B1B68002B01
:10034C0011D1FFF74BFF184BC8221A600BE0164B6C
:10035C001B68013B144A1360134B1B68002B02D122
:10036C00104B01221A6000BF80BD00BF04000020AA
:10037C000000002008000020001001400C000020AC
:10038C001000002018000020140000201C00002089
:10039C0020000020240000202C0000202800002039
:1003AC0030000020340000203800002080B500AF61
:1003BC00844B1B68013B042B00F2248301A252F8EE
:1003CC0023F000BFE5030008950400081906000897
:1003DC005B070008D1080008012220217A4801F0AF
:1003EC001EFE01228021784801F019FE01224021D5
:1003FC00754801F014FE01224FF48071724801F02F
:10040C000EFE01224FF480616F4801F008FE0122BC
:10041C004FF400716C4801F002FE6A4B02221A6024
:10042C006A4B1B68184601F0EFF9322001F02EFAE6
:10043C00674B1B68674A1360674B1B68674A1360FE
:10044C00624B1B68664A1360614B1B68654A1360FC
:10045C00614B1B68644A13605C4B1B68634A1360F6
:10046C005A4B1A685C4B1B681A44594B1B689A42CE
:10047C0000F0CA825E4B02221A60524B0C221A60A8
:10048C00322001F0C1F9BFE2002220214E4801F0D8
:10049C00C6FD012280214C4801F0C1FD0122402102
:1004AC00494801F0BCFD01224FF48071464801F02F
:1004BC00B6FD00224FF48061434801F0B0FD0122EB
:1004CC004FF40071404801F0AAFD4A4B1B68012B08
:1004DC004CD1444B1B68484A82FB03125211DB1768
:1004EC00D31A184600F0EAFF404B1B68424A82FBC5
:1004FC0003125211DB17D31A184601F03BF83F4B8D
:10050C001A683F4B1B689A4202DB3C4B00221A6074
:10051C003C4B1A683A4B1B689A4202DB394B00225F
:10052C001A60384B1B685A1C36490A60184600F092
:10053C00E9FF324B1B685A1C30490A60184600F020
:10054C0085FF2E4B1B68022B04D1264B1B68643B8A
:10055C00244A13602B4B1B68022B04D1234B1B68C2
:10056C00643B224A1360322001F090F9264B1B6841
:10057C00012B0BD1154B1B681C4A1360114B03222A
:10058C001A60154B1B68184601F03EF9FFF7D8FDB1
:10059C000346012B40F03A82154B02221A600122CD
:1005AC002021094801F03BFD01224FF480710648DF
:1005BC0001F035FD034B0C221A60322001F024F9B6
:1005CC0024E200BF88000020000801404400002005
:1005DC0040000020AC00002048000020B0000020AB
:1005EC00C0000020B8000020BC000020B400002097
:1005FC003C000020A80000201F85EB51800000204B
:10060C006C30000884000020A00000200022202173
:10061C009D4801F004FD012280219B4801F0FFFC64
:10062C0001224021984801F0FAFC01224FF480711C
:10063C00954801F0F4FC01224FF48061924801F0DE
:10064C00EEFC00224FF400718F4801F0E8FC8F4B58
:10065C001B68012B4CD18E4B1B688E4A82FB0312FC
:10066C005211DB17D31A184600F028FF8A4B1B686F
:10067C00884A82FB03125211DB17D31A184600F07A
:10068C0079FF864B1A68864B1B689A4202DB834BB8
:10069C0000221A60834B1A68814B1B689A4202DB5A
:1006AC00804B00221A607F4B1B685A1C7D490A60E4
:1006BC00184600F027FF794B1B685A1C77490A60D3
:1006CC00184600F0C3FE754B1B68022B04D1704B0F
:1006DC001B68643B6E4A1360724B1B68022B04D17F
:1006EC006D4B1B68643B6C4A1360322001F0CEF8F2
:1006FC006D4B1B68012B0FD16C4B1B68644A13604C
:10070C006B4B1B68644A13606A4B04221A606A4B79
:10071C001B68184601F078F8FFF712FD0346012B11
:10072C0040F07681654B02221A6001222021564846
:10073C0001F075FC01224FF48071534801F06FFCFD
:10074C005C4B0C221A60322001F05EF860E1012251
:10075C0020214D4801F063FC002280214A4801F021
:10076C005EFC01224021484801F059FC00224FF464
:10077C008071454801F053FC01224FF480614248DE
:10078C0001F04DFC01224FF400713F4801F047FC91
:10079C003E4B1B68012B4CD1494B1B683D4A82FBDD
:1007AC0003125211DB17D31A184600F087FE384B90
:1007BC001B68384A82FB03125211DB17D31A1846F6
:1007CC0000F0D8FE354B1A68354B1B689A4202DB99
:1007DC00324B00221A60334B1A68314B1B689A4219
:1007EC0002DB304B00221A602E4B1B685A1C2D4921
:1007FC000A60184600F086FE284B1B685A1C2749D5
:10080C000A60184600F022FE244B1B68022B04D110
:10081C002B4B1B68643B2A4A1360224B1B68022B30
:10082C0004D11B4B1B68643B194A1360322001F046
:10083C002DF81D4B1B68012B0BD11F4B1B68204A3D
:10084C0013601C4B05221A60194B1B68184600F0EC
:10085C00DBFFFFF775FC0346012B40F0DB80174BE9
:10086C0002221A6001222021074801F0D8FB012244
:10087C004FF48071044801F0D2FB0E4B0C221A602D
:10088C00322000F0C1FFC5E000080140A8000020A4
:10089C00B80000201F85EB51BC0000208000002018
:1008AC006C30000884000020A000002040000020D4
:1008BC004800002088000020440000203C0000205C
:1008CC00B400002001222021554801F0A8FB012290
:1008DC008021534801F0A3FB00224021504801F035
:1008EC009EFB00224FF480714D4801F098FB0122D1
:1008FC004FF480614A4801F092FB01224FF40071E1
:10090C00474801F08CFB474B1B68012B4CD1464BE5
:10091C001B68464A82FB03125211DB17D31A184686
:10092C0000F0CCFD424B1B68404A82FB0312521173
:10093C00DB17D31A184600F01DFE3E4B1A683E4BCF
:10094C001B689A4202DB3B4B00221A603B4B1A6835
:10095C00394B1B689A4202DB384B00221A60374B2A
:10096C001B685A1C35490A60184600F0CBFD314B08
:10097C001B685A1C2F490A60184600F067FD2D4B66
:10098C001B68022B04D1284B1B68643B264A13605E
:10099C002A4B1B68022B04D1254B1B68643B244A51
:1009AC001360322000F072FF254B1B68012B0FD116
:1009BC00244B1B681E4A1360234B1B681A4A136096
:1009CC00224B02221A60224B1B68184600F01CFFB7
:1009DC00FFF7B6FB0346012B1ED11E4B02221A60F9
:1009EC00012220210E4801F01AFB01224FF48071E4
:1009FC000B4801F014FB154B0C221A60322000F04E
:100A0C0003FF09E000BF08E000BF06E000BF04E000
:100A1C0000BF02E000BF00E000BF00BF80BD00BF10
:100A2C0000080140A8000020BC0000201F85EB51ED
:100A3C00B8000020800000206C30000884000020EA
:100A4C00A00000204000002048000020880000206A
:100A5C00440000203C00002080B500AFB64B1B6862
:100A6C000E2B7FD00E2B00F381810C2B03D00D2B82
:100A7C0000F0EF807AE1B14B1B68012B3BD12021B8
:100A8C00AF4801F0E4FA4FF48071AD4801F0DFFAA1
:100A9C00AC4B1B68184600F011FDAB4B1B68AB4A06
:100AAC0082FB03125211DB17D31A184600F062FDB9
:100ABC00A74B1B680222934202DBA54B00221A6053
:100ACC00A44B1B680222934202DBA24B00221A6049
:100ADC00A04B1B685A1C9F490A60184600F012FD77
:100AEC009B4B1B685A1C9A490A60184600F0AEFCD6
:100AFC00322000F089FE01228021914801F08FFA0A
:100B0C00012240218E4801F08AFA01224FF48061C3
:100B1C008B4801F084FA01224FF40071884801F0EF
:100B2C007EFAFFF70DFB0346012B08D1854B032200
:100B3C001A60814B0E221A60322000F065FE824B47
:100B4C001B68184600F01CF903467F4A1360FFF738
:100B5C001BFB0346012B40F00B817B4B1B687E4A31
:100B6C00136005E1754B1B68012B3BD14021744888
:100B7C0001F06DFA4FF40071714801F068FA714B95
:100B8C001B68184600F09AFC744B1B686F4A82FB7A
:100B9C0003125211DB17D31A184600F0EBFC6C4B06
:100BAC001B680222934202DB694B00221A60694BDC
:100BBC001B680222934202DB664B00221A60654BD3
:100BCC001B685A1C63490A60184600F09BFC604B7A
:100BDC001B685A1C5E490A60184600F037FC32202C
:100BEC0000F012FE01222021554801F018FA0122D2
:100BFC008021534801F013FA01224FF480715048C0
:100C0C0001F00DFA01224FF480614D4801F007FA12
:100C1C00FFF796FA0346012B08D14A4B04221A60BF
:100C2C00454B0D221A60322000F0EEFD4B4B1B6839
:100C3C00184600F0A5F80346484A1360FFF7A4FADB
:100C4C000346012B40F09680444B1B68444A1360CA
:100C5C0090E03A4B1B68012B3BD18021384801F0C6
:100C6C00F6F94FF48061364801F0F1F9354B1B6809
:100C7C00184600F023FC3B4B1B68344A82FB0312E2
:100C8C005211DB17D31A184600F074FC304B1B685A
:100C9C000222934202DB2E4B00221A602D4B1B6862
:100CAC000222934202DB2B4B00221A60294B1B6859
:100CBC005A1C28490A60184600F024FC244B1B6877
:100CCC005A1C23490A60184600F0C0FB322000F081
:100CDC009BFD012220211A4801F0A1F9012240219B
:100CEC00174801F09CF901224FF48071144801F06F
:100CFC0096F901224FF40071114801F090F9FFF7B9
:100D0C001FFA0346012B05D10B4B01221A6032202E
:100D1C0000F07AFD134B1B68184600F031F80346BF
:100D2C00104A1360FFF730FA0346012B24D10D4B08
:100D3C001B680D4A13601FE088000020A0000020F3
:100D4C00000801403C000020AC0000201F85EB5146
:100D5C00800000208400002040000020B000002013
:100D6C0048000020C00000204400002000BF04E028
:100D7C0000BF02E000BF00E000BF00BF80BD00BFAD
:100D8C0080B582B000AF7860FFF7ECF90346012B19
:100D9C0009D17B6864337B607B6842F2AC6293421E
:100DAC0001DD64237B607B6818460837BD4680BD37
:100DBC0080B582B000AF78607B68002B22D1002216
:100DCC000121BE4801F02BF900220221BB4801F0A1
:100DDC0026F900220421B94801F021F9002208214A
:100DEC00B64801F01CF900221021B44801F017F9A3
:100DFC0000222021B14801F012F901224021AF4814
:100E0C0001F00DF97B68012B22D101220121AB48A5
:100E1C0001F005F900220221A84801F000F9002296
:100E2C000421A64801F0FBF801220821A34801F097
:100E3C00F6F801221021A14801F0F1F8012220213D
:100E4C009E4801F0ECF8012240219C4801F0E7F8A3
:100E5C007B68022B22D100220121984801F0DFF897
:100E6C0000220221954801F0DAF80122042193486E
:100E7C0001F0D5F800220821904801F0D0F80022AA
:100E8C0010218E4801F0CBF8012220218B4801F073
:100E9C00C6F800224021894801F0C1F87B68032B79
:100EAC0022D100220121854801F0B9F8002202214B
:100EBC00824801F0B4F800220421804801F0AFF818
:100ECC00002208217D4801F0AAF8012210217B485C
:100EDC0001F0A5F801222021784801F0A0F80022A9
:100EEC004021764801F09BF87B68042B22D101222B
:100EFC000121724801F093F8002202216F4801F0A1
:100F0C008EF8002204216D4801F089F80122082195
:100F1C006A4801F084F801221021684801F07FF83A
:100F2C0000222021654801F07AF800224021634814
:100F3C0001F075F87B68052B22D1002201215F4856
:100F4C0001F06DF8012202215C4801F068F80022E2
:100F5C0004215A4801F063F800220821574801F097
:100F6C005EF801221021554801F059F80022202189
:100F7C00524801F054F800224021504801F04FF83B
:100F8C007B68062B22D1002201214C4801F047F846
:100F9C0001220221494801F042F80022042147486D
:100FAC0001F03DF800220821444801F038F80022F5
:100FBC001021424801F033F8002220213F4801F073
:100FCC002EF8002240213D4801F029F87B68072BC0
:100FDC0022D100220121394801F021F800220221FE
:100FEC00364801F01CF800220421344801F017F8AF
:100FFC0001220821314801F012F8012210212F485A
:10100C0001F00DF8012220212C4801F008F80122F2
:10101C0040212A4801F003F87B68082B22D10022DA
:10102C000121264800F0FBFF00220221234800F09A
:10103C00F6FF00220421214800F0F1FF00220821D4
:10104C001E4800F0ECFF002210211C4800F0E7FFC6
:10105C0000222021194800F0E2FF0022402117480D
:10106C0000F0DDFF7B68092B23D1002201211348FE
:10107C0000F0D5FF00220221104800F0D0FF002222
:10108C0004210E4800F0CBFF002208210B4800F091
:10109C00C6FF01221021094800F0C1FF00222021C7
:1010AC00064800F0BCFF00224021044800F0B7FFC6
:1010BC0000E000BF0837BD4680BD00BF000C0140FA
:1010CC0080B582B000AF78607B68002B28D10022FD
:1010DC008021D24800F0A3FF00224FF48071CF484A
:1010EC0000F09DFF00224FF40071CC4800F097FFF8
:1010FC0000224FF48061C94800F091FF00224FF4A8
:10110C000061C64800F08BFF00224FF48051C348A9
:10111C0000F085FF01224FF40051C04800F07FFF22
:10112C007B68012B28D101228021BC4800F077FF7D
:10113C0000224FF48071B94800F071FF00224FF487
:10114C000071B64800F06BFF01224FF48061B34888
:10115C0000F065FF01224FF40061B04800F05FFF22
:10116C0001224FF48051AD4800F059FF01224FF499
:10117C000051AA4800F053FF7B68022B28D10022B3
:10118C008021A64800F04BFF00224FF48071A34849
:10119C0000F045FF01224FF40071A04800F03FFF22
:1011AC0000224FF480619D4800F039FF00224FF47B
:1011BC0000619A4800F033FF01224FF480519748A8
:1011CC0000F02DFF00224FF40051944800F027FF4F
:1011DC007B68032B28D100228021904800F01FFF50
:1011EC0000224FF480718D4800F019FF00224FF45B
:1011FC0000718A4800F013FF00224FF48061874889
:10120C0000F00DFF01224FF40061844800F007FF4D
:10121C0001224FF48051814800F001FF00224FF46D
:10122C0000517E4800F0FBFE7B68042B28D1012284
:10123C0080217A4800F0F3FE00224FF48071774849
:10124C0000F0EDFE00224FF40071744800F0E7FE50
:10125C0001224FF48061714800F0E1FE01224FF44D
:10126C0000616E4800F0DBFE00224FF480516B48A9
:10127C0000F0D5FE00224FF40051684800F0CFFE7C
:10128C007B68052B28D100228021644800F0C7FE22
:10129C0001224FF48071614800F0C1FE00224FF42E
:1012AC0000715E4800F0BBFE00224FF480615B4889
:1012BC0000F0B5FE01224FF40061584800F0AFFE7B
:1012CC0000224FF48051554800F0A9FE00224FF443
:1012DC000051524800F0A3FE7B68062B28D1002257
:1012EC0080214E4800F09BFE01224FF480714B4848
:1012FC0000F095FE00224FF40071484800F08FFE7C
:10130C0000224FF48061454800F089FE00224FF422
:10131C000061424800F083FE00224FF480513F48A8
:10132C0000F07DFE00224FF400513C4800F077FEA7
:10133C007B68072B28D100228021384800F06FFEF3
:10134C0000224FF48071354800F069FE00224FF402
:10135C000071324800F063FE01224FF480612F4887
:10136C0000F05DFE01224FF400612C4800F057FEA6
:10137C0001224FF48051294800F051FE01224FF414
:10138C000051264800F04BFE7B68082B28D1002228
:10139C008021224800F043FE00224FF480711F4848
:1013AC0000F03DFE00224FF400711C4800F037FEA7
:1013BC0000224FF48061194800F031FE00224FF4F6
:1013CC000061164800F02BFE00224FF480511348A8
:1013DC0000F025FE00224FF40051104800F01FFED3
:1013EC007B68092B2CD1002280210C4800F017FEC1
:1013FC0000224FF48071094800F011FE00224FF4D6
:10140C000071064800F00BFE00224FF48061034887
:10141C0000F005FE01224FF4006101E0000C0140D8
:10142C00094800F0FCFD00224FF48051064800F002
:10143C00F6FD00224FF40051034800F0F0FD00E0EF
:10144C0000BF0837BD4680BD000C014080B582B09E
:10145C0000AF78607B68002B03D07B68012B12D027
:10146C0023E000220821134800F0D9FD01221021AD
:10147C00104800F0D4FD104A7B6852F8233018460F
:10148C00FFF796FC11E0012208210A4800F0C7FD85
:10149C0000221021074800F0C2FD074A7B6852F871
:1014AC0023301846FFF784FC00BF00BF0837BD4649
:1014BC0080BD00BF000801408C00002080B483B0C8
:1014CC0000AF78607B680D4A82FB03129210DB1729
:1014DC00D31A0B4A13607968084B83FB01239A10CB
:1014EC00CB17D21A13469B0013445B00CA1A044B49
:1014FC005A6000BF0C37BD4680BC70476766666695
:10150C008C00002080B582B000AF78607B68002B27
:10151C0003D07B68012B12D023E000220221134858
:10152C0000F07DFD01220421104800F078FD104AE6
:10153C007B6852F823301846FFF7C2FD11E00122F8
:10154C0002210A4800F06BFD00220421074800F03C
:10155C0066FD074A7B6852F823301846FFF7B0FD4A
:10156C0000BF00BF0837BD4680BD00BF000801406A
:10157C009400002080B483B000AF78607B680D4A83
:10158C0082FB03129210DB17D31A0B4A1360796893
:10159C00084B83FB01239A10CB17D21A13469B00DE
:1015AC0013445B00CA1A044B5A6000BF0C37BD468B
:1015BC0080BC7047676666669400002080B500AFFB
:1015CC0000F02CFA00F014F800F09AF800F04CF847
:1015DC00054801F081F9054B01221A60FEF7E6FE81
:1015EC00FFF73AFAFAE700BFC40000208800002099
:1015FC0080B590B000AF07F11803282200211846DF
:10160C0001F01AFD3B1D00221A605A609A60DA60E4
:10161C001A610223BB610123BB621023FB6200230E
:10162C007B6307F11803184600F02AFD0346002BD4
:10163C0001D000F0E3F80F237B600023BB60002394
:10164C00FB6000233B6100237B613B1D002118469E
:10165C0000F096FF0346002B01D000F0CFF800BF3E
:10166C004037BD4680BD000080B586B000AF07F1A5
:10167C00080300221A605A609A60DA603B46002226
:10168C001A605A601D4B4FF080421A601B4B41F69A
:10169C003F725A60194B00229A60184B0922DA608B
:1016AC00164B00221A61154B00229A61134801F067
:1016BC00C3F80346002B01D000F0A0F84FF4805380
:1016CC00BB6007F1080319460C4801F041FA0346C8
:1016DC00002B01D000F092F800233B6000237B60CC
:1016EC003B461946054801F019FC0346002B01D076
:1016FC0000F084F800BF1837BD4680BDC400002040
:10170C0080B588B000AF07F1100300221A605A6050
:10171C009A60DA602F4B9B692E4A43F01003936159
:10172C002C4B9B6903F01003FB60FB68294B9B69F6
:10173C00284A43F004039361264B9B6903F004038E
:10174C00BB60BB68234B9B69224A43F0080393613F
:10175C00204B9B6903F008037B607B68002240F2FE
:10176C00FE711D4800F05BFC002243F6FF711B4824
:10177C0000F055FC4FF460433B6100237B61012377
:10178C00BB6107F110031946154800F0B7FA40F297
:10179C00FE733B6101237B610023BB610223FB6170
:1017AC0007F1100319460C4800F0A8FA43F6FF7332
:1017BC003B6101237B610023BB610223FB6107F1C9
:1017CC0010031946054800F099FA00BF2037BD46B2
:1017DC0080BD00BF0010024000080140000C014019
:1017EC000010014080B582B000AF786000F020F8A6
:1017FC00FEF700FD00BF0837BD4680BD80B400AFCA
:10180C0072B600BFFEE7000080B483B000AF786012
:10181C00054A7B681360054B00221A6000BF0C3729
:10182C00BD4680BC704700BF9C000020A00000207B
:10183C0080B400AF114B1B68002B0BDD0F4B1B68EA
:10184C00013B0E4A13600D4B1B68002B02DC0C4B4A
:10185C0001221A600B4B1B68002B0BDD094B1B681C
:10186C00013B084A1360074B1B68002B02DC064B3C
:10187C0001221A6000BFBD4680BC70479C0000204E
:10188C00A0000020A4000020A800002080B483B099
:10189C0000AF7860054A7B681360054B00221A6024
:1018AC0000BF0C37BD4680BC704700BFA4000020B1
:1018BC00A800002080B485B000AF154B9B69144A7A
:1018CC0043F001039361124B9B6903F00103BB606E
:1018DC00BB680F4BDB690E4A43F08053D3610C4B52
:1018EC00DB6903F080537B607B680A4B5B68FB60B1
:1018FC00FB6823F0E063FB60FB6843F00073FB6064
:10190C00044AFB68536000BF1437BD4680BC704767
:10191C00001002400000014080B584B000AF786038
:10192C007B681B68B3F1804F13D10C4BDB690B4AFE
:10193C0043F00103D361094BDB6903F00103FB6046
:10194C00FB68002200211C2000F0A1F91C2000F0F3
:10195C00BAF900BF1037BD4680BD00BF0010024071
:10196C0080B400AFFEE780B400AFFEE780B400AFF8
:10197C00FEE780B400AFFEE780B400AFFEE780B4B2
:10198C0000AF00BFBD4680BC704780B400AF00BF45
:10199C00BD4680BC704780B400AF00BFBD4680BC64
:1019AC00704780B500AF00F07FF800BF80BD00002D
:1019BC0080B500AF024800F0DBFF00BF80BD00BF68
:1019CC00C400002080B400AF00BFBD4680BC70478F
:1019DC00FFF7F8FF0B480C490C4A002302E0D458DF
:1019EC00C4500433C4188C42F9D3094A094C00235F
:1019FC0001E013600432A242FBD301F0F9FAFFF7C5
:101A0C00DDFD704700000020580000209C300008CD
:101A1C005800002010010020FEE7000080B500AF48
:101A2C00084B1B68074A43F010031360032000F0B7
:101A3C0023F90F2000F008F8FFF73CFF00231846AD
:101A4C0080BD00BF0020024080B582B000AF78603E
:101A5C00124B1A68124B1B7819464FF47A73B3FB6E
:101A6C00F1F3B2FBF3F3184600F03BF90346002BFD
:101A7C0001D001230EE07B680F2B0AD80022796875
:101A8C004FF0FF3000F003F9064A7B681360002327
:101A9C0000E0012318460837BD4680BD4C000020ED
:101AAC00540000205000002080B400AF054B1B7880
:101ABC001A46054B1B681344034A136000BFBD460E
:101ACC0080BC7047540000200C01002080B400AF93
:101ADC00024B1B681846BD4680BC70470C010020A9
:101AEC0080B485B000AF78607B6803F00703FB60BF
:101AFC000C4BDB68BB60BA684FF6FF031340BB604E
:101B0C00FB681A02BB68134343F0BF6343F4003312
:101B1C00BB60044ABB68D36000BF1437BD4680BCB1
:101B2C00704700BF00ED00E080B400AF044BDB68F1
:101B3C001B0A03F007031846BD4680BC704700BF64
:101B4C0000ED00E080B483B000AF0346FB7197F961
:101B5C000730002B0BDBFB7903F01F02064997F9CA
:101B6C0007305B09012000FA02F241F8232000BF84
:101B7C000C37BD4680BC704700E100E080B483B0F8
:101B8C0000AF03463960FB7197F90730002B0ADB75
:101B9C003B68DAB20C4997F907301201D2B20B4408
:101BAC0083F800230AE03B68DAB20849FB7903F0BA
:101BBC000F03043B1201D2B20B441A7600BF0C3750
:101BCC00BD4680BC704700BF00E100E000ED00E0C6
:101BDC0080B489B000AFF860B9607A60FB6803F03C
:101BEC000703FB61FB69C3F10703042B28BF042324
:101BFC00BB61FB690433062B02D9FB69033B00E094
:101C0C0000237B614FF0FF32BB6902FA03F3DA4326
:101C1C00BB681A407B699A404FF0FF317B6901FA2F
:101C2C0003F3D9437B680B40134318462437BD4656
:101C3C0080BC704780B582B000AF78607B68013B98
:101C4C00B3F1807F01D301230FE00A4A7B68013B8B
:101C5C0053600F214FF0FF30FFF790FF054B002230
:101C6C009A60044B07221A60002318460837BD46B9
:101C7C0080BD00BF10E000E080B582B000AF78609E
:101C8C007868FFF72DFF00BF0837BD4680BD80B5D3
:101C9C0086B000AF0346B9607A60FB7300237B61AA
:101CAC00FFF742FF78617A68B9687869FFF790FFAF
:101CBC00024697F90F3011461846FFF75FFF00BF39
:101CCC001837BD4680BD80B582B000AF0346FB71AE
:101CDC0097F907301846FFF735FF00BF0837BD46A8
:101CEC0080BD80B582B000AF78607868FFF7A2FF46
:101CFC00034618460837BD4680BD000080B48BB043
:101D0C0000AF7860396000237B6200233B6248E1BE
:101D1C0001227B6A02FA03F3FB613B681B68FA69D8
:101D2C001340BB61BA69FB699A4240F037813B684A
:101D3C005B68A34A93425ED0A14A934275D8A14AEC
:101D4C00934258D09F4A93426FD89F4A934252D0A5
:101D5C009D4A934269D89D4A93424CD09B4A9342E8
:101D6C0063D89B4A934246D0994A93425DD8122B32
:101D7C002AD8122B59D801A252F823F0031E0008BE
:101D8C00DD1D0008EF1D0008311E0008371E00087D
:101D9C00371E0008371E0008371E0008371E0008C3
:101DAC00371E0008371E0008371E0008371E0008B3
:101DBC00371E0008371E0008371E0008371E0008A3
:101DCC00E51D0008F91D0008824A934213D02CE04F
:101DDC003B68DB683B6229E03B68DB6804333B62B1
:101DEC0024E03B68DB6808333B621FE03B68DB6840
:101DFC000C333B621AE03B689B68002B02D1042336
:101E0C003B6213E03B689B68012B05D108233B62C6
:101E1C007B68FA691A6109E008233B627B68FA69FE
:101E2C005A6103E000233B6200E000BFBB69FF2B5B
:101E3C0001D87B6801E07B6804337B61BB69FF2BB5
:101E4C0002D87B6A9B0002E07B6A083B9B003B61EB
:101E5C007B691A680F213B6901FA03F3DB431A40D3
:101E6C00396A3B6901FA03F31A437B691A603B68D0
:101E7C005B6803F08053002B00F09080564B9B69FD
:101E8C00554A43F001039361534B9B6903F00103E3
:101E9C00BB60BB68514A7B6A9B08023352F8233003
:101EAC00FB607B6A03F003039B000F2202FA03F32F
:101EBC00DB43FA681340FB607B68494A93420DD0C0
:101ECC007B68484A934207D07B68474A934201D1CA
:101EDC00022304E0032302E0012300E000237A6ADA
:101EEC0002F0030292009340FA681343FB603B49F3
:101EFC007B6A9B080233FA6841F823203B685B68D5
:101F0C0003F48013002B06D0384B9A683749BB6911
:101F1C0013438B6006E0354B9A68BB69DB4333494E
:101F2C0013408B603B685B6803F40013002B06D0F6
:101F3C002E4BDA682D49BB691343CB6006E02B4B63
:101F4C00DA68BB69DB4329491340CB603B685B68AB
:101F5C0003F40033002B06D0244B5A682349BB6989
:101F6C0013434B6006E0214B5A68BB69DB431F49A6
:101F7C0013404B603B685B6803F48033002B06D046
:101F8C001A4B1A681949BB6913430B6006E0174BCF
:101F9C001A68BB69DB43154913400B607B6A01333C
:101FAC007B623B681A687B6A22FA03F3002B7FF48E
:101FBC00AFAE00BF00BF2C37BD4680BC704700BF22
:101FCC00000032100000311000002210000021101F
:101FDC00000012100000111000100240000001401F
:101FEC0000080140000C01400010014000040140B9
:101FFC0080B485B000AF78600B467B807B689A68B4
:10200C007B881340002B02D00123FB7301E00023DB
:10201C00FB73FB7B18461437BD4680BC704780B4FD
:10202C0083B000AF78600B467B8013467B707B7867
:10203C00002B03D07A887B681A6103E07B881A0432
:10204C007B681A6100BF0C37BD4680BC704780B4FA
:10205C0085B000AF78600B467B807B68DB68FB60EB
:10206C007A88FB6813401A04FB68D9437B880B40C1
:10207C001A437B681A6100BF1437BD4680BC704799
:10208C0080B586B000AF78607B68002B01D101234E
:10209C006CE27B681B6803F00103002B00F0878067
:1020AC00924B5B6803F00C03042B0CD08F4B5B68DA
:1020BC0003F00C03082B12D18C4B5B6803F48033B8
:1020CC00B3F5803F0BD1894B1B6803F40033002B15
:1020DC006CD07B685B68002B68D1012346E27B687F
:1020EC005B68B3F5803F06D1804B1B687F4A43F495
:1020FC00803313602EE07B685B68002B0CD17B4B2C
:10210C001B687A4A23F480331360784B1B68774A38
:10211C0023F4802313601DE07B685B68B3F5A02F6C
:10212C000CD1724B1B68714A43F4802313606F4BC4
:10213C001B686E4A43F4803313600BE06B4B1B68D7
:10214C006A4A23F480331360684B1B68674A23F494
:10215C00802313607B685B68002B13D0FFF7B6FC01
:10216C00386108E0FFF7B2FC02463B69D31A642BD6
:10217C0001D90323FAE15D4B1B6803F40033002BF8
:10218C00F0D014E0FFF7A2FC386108E0FFF79EFCEA
:10219C0002463B69D31A642B01D90323E6E1534B66
:1021AC001B6803F40033002BF0D100E000BF7B6808
:1021BC001B6803F00203002B63D04C4B5B6803F0ED
:1021CC000C03002B0BD0494B5B6803F00C03082B62
:1021DC001CD1464B5B6803F48033002B16D1434B68
:1021EC001B6803F00203002B05D07B681B69012BD5
:1021FC0001D00123BAE13D4B1B6823F0F8027B6848
:10220C005B69DB00394913430B603AE07B681B695F
:10221C00002B20D0364B01221A60FFF757FC386197
:10222C0008E0FFF753FC02463B69D31A022B01D995
:10223C0003239BE12D4B1B6803F00203002BF0D012
:10224C002A4B1B6823F0F8027B685B69DB0027498B
:10225C0013430B6015E0264B00221A60FFF736FC87
:10226C00386108E0FFF732FC02463B69D31A022BB7
:10227C0001D903237AE11D4B1B6803F00203002BE9
:10228C00F0D17B681B6803F00803002B3AD07B6805
:10229C009B69002B19D0174B01221A60FFF716FC13
:1022AC00386108E0FFF712FC02463B69D31A022B97
:1022BC0001D903235AE10D4B5B6A03F00203002B97
:1022CC00F0D0012000F09AFA1CE00A4B00221A60B0
:1022DC00FFF7FCFB38610FE0FFF7F8FB02463B69A8
:1022EC00D31A022B08D9032340E100BF001002408F
:1022FC0000004242800442429E4B5B6A03F00203A0
:10230C00002BE9D17B681B6803F00403002B00F061
:10231C00A6800023FB75974BDB6903F08053002BE1
:10232C000DD1944BDB69934A43F08053D361914BAD
:10233C00DB6903F08053BB60BB680123FB758E4BDC
:10234C001B6803F48073002B18D18B4B1B688A4AD3
:10235C0043F480731360FFF7B9FB386108E0FFF7B3
:10236C00B5FB02463B69D31A642B01D90323FDE06C
:10237C00814B1B6803F48073002BF0D07B68DB6807
:10238C00012B06D17B4B1B6A7A4A43F00103136283
:10239C002DE07B68DB68002B0CD1764B1B6A754AF1
:1023AC0023F001031362734B1B6A724A23F004037C
:1023BC0013621CE07B68DB68052B0CD16D4B1B6A30
:1023CC006C4A43F0040313626A4B1B6A694A43F07C
:1023DC00010313620BE0674B1B6A664A23F001038F
:1023EC001362644B1B6A634A23F0040313627B6819
:1023FC00DB68002B15D0FFF769FB38610AE0FFF7AB
:10240C0065FB02463B69D31A41F28832934201D9EB
:10241C000323ABE0574B1B6A03F00203002BEED0F7
:10242C0014E0FFF753FB38610AE0FFF74FFB02465D
:10243C003B69D31A41F28832934201D9032395E0C8
:10244C004C4B1B6A03F00203002BEED1FB7D012BDE
:10245C0005D1484BDB69474A23F08053D3617B6835
:10246C00DB69002B00F08180424B5B6803F00C03AE
:10247C00082B61D07B68DB69022B46D13F4B0022D5
:10248C001A60FFF723FB386108E0FFF71FFB0246D9
:10249C003B69D31A022B01D9032367E0354B1B6828
:1024AC0003F00073002BF0D17B681B6AB3F5803FFF
:1024BC0008D1304B5B6823F400327B689B682D4954
:1024CC0013434B602B4B5B6823F474127B68196AC3
:1024DC007B685B6A0B43274913434B60274B0122F4
:1024EC001A60FFF7F3FA386108E0FFF7EFFA0246DB
:1024FC003B69D31A022B01D9032337E01D4B1B6810
:10250C0003F00073002BF0D02FE01C4B00221A605C
:10251C00FFF7DCFA386108E0FFF7D8FA02463B69AE
:10252C00D31A022B01D9032320E0124B1B6803F0B2
:10253C000073002BF0D118E07B68DB69012B01D113
:10254C00012313E00B4B5B68FB60FB6803F48032E8
:10255C007B681B6A9A4206D1FB6803F470127B6895
:10256C005B6A9A4201D0012300E000231846183719
:10257C00BD4680BD00100240007000406000424229
:10258C0080B584B000AF786039607B68002B01D1D6
:10259C000123D0E06A4B1B6803F007033A689A42A8
:1025AC0010D9674B1B6823F0070265493B6813433E
:1025BC000B60634B1B6803F007033A689A4201D027
:1025CC000123B8E07B681B6803F00203002B20D0CA
:1025DC007B681B6803F00403002B05D0594B5B6828
:1025EC00584A43F4E06353607B681B6803F00803AC
:1025FC00002B05D0534B5B68524A43F46053536035
:10260C00504B5B6823F0F0027B689B684D49134389
:10261C004B607B681B6803F00103002B40D07B6888
:10262C005B68012B07D1474B1B6803F40033002B6D
:10263C0015D101237FE07B685B68022B07D1414BEE
:10264C001B6803F00073002B09D1012373E03D4B91
:10265C001B6803F00203002B01D101236BE0394B03
:10266C005B6823F003027B685B68364913434B605D
:10267C00FFF72CFAF8600AE0FFF728FA0246FB682D
:10268C00D31A41F28832934201D9032353E02D4BE4
:10269C005B6803F00C027B685B689B009A42EBD191
:1026AC00274B1B6803F007033A689A4210D2244B5D
:1026BC001B6823F0070222493B6813430B60204B35
:1026CC001B6803F007033A689A4201D0012332E0F9
:1026DC007B681B6803F00403002B08D0194B5B6864
:1026EC0023F4E0627B68DB68164913434B607B681C
:1026FC001B6803F00803002B09D0124B5B6823F412
:10270C0060527B681B69DB000E4913434B6000F081
:10271C0021F802460B4B5B681B0903F00F030A49B7
:10272C00CB5C22FA03F3094A1360094B1B68184669
:10273C00FFF78AF9002318461037BD4680BD00BF4D
:10274C000020024000100240703000084C000020B5
:10275C005000002080B487B000AF0023FB60002342
:10276C00BB6000237B6100237B6000233B611E4B1D
:10277C005B68FB60FB6803F00C03042B02D0082B96
:10278C0003D027E0194B3B6127E0FB689B0C03F05F
:10279C000F03174AD35C7B60FB6803F48033002B78
:1027AC0010D0114B5B685B0C03F00103114AD35C36
:1027BC00BB607B680D4A02FB03F2BB68B2FBF3F310
:1027CC007B6104E07B680C4A02FB03F37B617B6951
:1027DC003B6102E0054B3B6100BF3B6918461C376F
:1027EC00BD4680BC704700BF0010024000127A004A
:1027FC00803000089030000800093D0080B485B09E
:10280C0000AF78600A4B1B680A4AA2FB03235B0AE1
:10281C007A6802FB03F3FB6000BFFB685A1EFA6088
:10282C00002BF9D100BF00BF1437BD4680BC7047E8
:10283C004C000020D34D621080B582B000AF7860A0
:10284C007B68002B01D1012341E07B6893F83D307C
:10285C00DBB2002B06D17B68002283F83C20786821
:10286C00FFF75AF87B68022283F83D207B681A68D0
:10287C007B6804331946104600F056FA7B68012237
:10288C0083F846207B68012283F83E207B68012276
:10289C0083F83F207B68012283F840207B6801226B
:1028AC0083F841207B68012283F842207B68012257
:1028BC0083F843207B68012283F844207B68012243
:1028CC0083F845207B68012283F83D2000231846BD
:1028DC000837BD4680BD000080B485B000AF78607D
:1028EC007B6893F83D30DBB2012B01D0012335E03E
:1028FC007B68022283F83D207B681B68DA687B6862
:10290C001B6842F00102DA607B681B68164A93422E
:10291C0009D07B681B68B3F1804F04D07B681B68BF
:10292C00124A934211D17B681B689B6803F0070322
:10293C00FB60FB68062B10D07B681B681A687B68F1
:10294C001B6842F001021A6007E07B681B681A687A
:10295C007B681B6842F001021A600023184614378A
:10296C00BD4680BC704700BF002C014000040040F5
:10297C0080B584B000AF78607B681B68DB68FB6057
:10298C007B681B681B69BB60BB6803F00203002BF0
:10299C0020D0FB6803F00203002B1BD07B681B6864
:1029AC006FF002021A617B6801221A777B681B6840
:1029BC009B6903F00303002B03D0786800F098F9AF
:1029CC0005E0786800F08BF9786800F09AF97B687C
:1029DC0000221A77BB6803F00403002B20D0FB689D
:1029EC0003F00403002B1BD07B681B686FF0040200
:1029FC001A617B6802221A777B681B689B6903F457
:102A0C004073002B03D0786800F072F905E0786809
:102A1C0000F065F9786800F074F97B6800221A7789
:102A2C00BB6803F00803002B20D0FB6803F00803FD
:102A3C00002B1BD07B681B686FF008021A617B6847
:102A4C0004221A777B681B68DB6903F00303002BF5
:102A5C0003D0786800F04CF905E0786800F03FF995
:102A6C00786800F04EF97B6800221A77BB6803F097
:102A7C001003002B20D0FB6803F01003002B1BD09D
:102A8C007B681B686FF010021A617B6808221A774A
:102A9C007B681B68DB6903F44073002B03D07868F8
:102AAC0000F026F905E0786800F019F9786800F074
:102ABC0028F97B6800221A77BB6803F00103002B0E
:102ACC000CD0FB6803F00103002B07D07B681B685C
:102ADC006FF001021A617868FEF784FEBB6803F0A0
:102AEC008003002B0CD0FB6803F08003002B07D075
:102AFC007B681B686FF080021A61786800F06FFACF
:102B0C00BB6803F04003002B0CD0FB6803F04003C0
:102B1C00002B07D07B681B686FF040021A61786845
:102B2C0000F0F8F8BB6803F02003002B0CD0FB6816
:102B3C0003F02003002B07D07B681B686FF020028A
:102B4C001A61786800F042FA00BF1037BD4680BDAC
:102B5C0080B584B000AF786039600023FB737B686C
:102B6C0093F83C30012B01D10223B4E07B680122A5
:102B7C0083F83C207B68022283F83D207B681B682D
:102B8C009B68BB60BB6823F07703BB60BB6823F416
:102B9C007F43BB607B681B68BA689A603B681B68A4
:102BAC00B3F5005F3ED0B3F5005F00F28780B3F55C
:102BBC00805F00F08680B3F5805F7FD8702B1AD0D1
:102BCC00702B7BD8602B50D0602B77D8502B3CD0FF
:102BDC00502B73D8402B58D0402B6FD8302B64D04F
:102BEC00302B6BD8202B60D0202B67D8002B5CD0DF
:102BFC00102B5AD062E07B6818683B6899683B6878
:102C0C005A683B68DB6800F06AF97B681B689B6854
:102C1C00BB60BB6843F07703BB607B681B68BA681A
:102C2C009A604FE07B6818683B6899683B685A6803
:102C3C003B68DB6800F053F97B681B689A687B681B
:102C4C001B6842F480429A603CE07B6818683B68E1
:102C5C0059683B68DB681A4600F0CAF87B681B6849
:102C6C005021184600F021F92CE07B6818683B686D
:102C7C0059683B68DB681A4600F0E8F87B681B680B
:102C8C006021184600F011F91CE07B6818683B685D
:102C9C0059683B68DB681A4600F0AAF87B681B6829
:102CAC004021184600F001F90CE07B681A683B687B
:102CBC001B681946104600F0F8F803E00123FB737B
:102CCC0000E000BF7B68012283F83D207B68002276
:102CDC0083F83C20FB7B18461037BD4680BD80B482
:102CEC0083B000AF786000BF0C37BD4680BC704726
:102CFC0080B483B000AF786000BF0C37BD4680BC99
:102D0C00704780B483B000AF786000BF0C37BD460D
:102D1C0080BC704780B483B000AF786000BF0C37C4
:102D2C00BD4680BC7047000080B485B000AF7860B1
:102D3C0039607B681B68FB607B682B4A934207D029
:102D4C007B68B3F1804F03D07B68284A934208D14B
:102D5C00FB6823F07003FB603B685B68FA68134305
:102D6C00FB607B68204A934207D07B68B3F1804FAD
:102D7C0003D07B681D4A934208D1FB6823F440734F
:102D8C00FB603B68DB68FA681343FB60FB6823F06D
:102D9C0080023B685B691343FB607B68FA681A60CE
:102DAC003B689A687B68DA623B681A687B689A624F
:102DBC007B680D4A934203D13B681A697B681A639E
:102DCC007B6801225A617B681B6903F00103002BAD
:102DDC0005D07B681B6923F001027B681A6100BF78
:102DEC001437BD4680BC7047002C014000040040E5
:102DFC0080B487B000AFF860B9607A60FB681B6A7A
:102E0C007B61FB681B6A23F00102FB681A62FB689A
:102E1C009B693B613B6923F0F0033B617B681B01C1
:102E2C003A6913433B617B6923F00A037B617A693E
:102E3C00BB6813437B61FB683A699A61FB687A69EA
:102E4C001A6200BF1C37BD4680BC704780B487B087
:102E5C0000AFF860B9607A60FB681B6A7B61FB6845
:102E6C001B6A23F01002FB681A62FB689B693B61CA
:102E7C003B6923F470433B617B681B033A69134342
:102E8C003B617B6923F0A0037B61BB681B017A6902
:102E9C0013437B61FB683A699A61FB687A691A6231
:102EAC0000BF1C37BD4680BC704780B485B000AFF6
:102EBC00786039607B689B68FB60FB6823F070036B
:102ECC00FB603A68FB68134343F00703FB607B68C5
:102EDC00FA689A6000BF1437BD4680BC704780B456
:102EEC0087B000AFF860B9607A603B60FB689B68A4
:102EFC007B617B6923F47F437B613B681A027B68AF
:102F0C001A43BB6813437A6913437B61FB687A6984
:102F1C009A6000BF1C37BD4680BC704780B485B03A
:102F2C0000AF786039607B6893F83C30012B01D19D
:102F3C00022341E07B68012283F83C207B6802225B
:102F4C0083F83D207B681B685B68FB607B681B68B3
:102F5C009B68BB60FB6823F07003FB603B681B68DD
:102F6C00FA681343FB607B681B68FA685A607B68DD
:102F7C001B68144A934209D07B681B68B3F1804FDD
:102F8C0004D07B681B68104A93420CD1BB6823F0B9
:102F9C008003BB603B685B68BA681343BB607B68AB
:102FAC001B68BA689A607B68012283F83D207B68B5
:102FBC00002283F83C20002318461437BD4680BC01
:102FCC00704700BF002C01400004004080B483B067
:102FDC0000AF786000BF0C37BD4680BC704780B432
:102FEC0083B000AF786000BF0C37BD4680BC704723
:102FFC0070B500260C4D0D4C641BA410A64209D1D3
:10300C0000F022F800260A4D0A4C641BA410A642BC
:10301C0005D170BD55F8043B98470136EEE755F8DD
:10302C00043B98470136F2E79430000894300008CE
:10303C00943000089830000803460244934200D1B3
:10304C00704703F8011BF9E7F8B500BFF8BC08BCE2
:10305C009E467047F8B500BFF8BC08BC9E4670474A
:10306C000200000000000000000000000102030448
:10307C000607080902030405060708090A0B0C0DCC
:08308C000E0F101001020000FC
:0430940031010008FE
:043098000D0100081E
:10309C000100000001000000010000000100000020
:1030AC00C800000001000000010000000100000049
:1030BC0001000000C8000000010000000100000039
:1030CC000100000001000000C80000000200000028
:1030DC00F40100002C010000C800000000127A006E
:0830EC001000000001000000CB
:04000005080019DDF9
:00000001FF
